{
  "address": "0x5FbDB2315678afecb367f032d93F642f64180aa3",
  "abi": [
    {
      "anonymous": false,
      "inputs": [
        {
          "indexed": true,
          "internalType": "address",
          "name": "account",
          "type": "address"
        },
        {
          "indexed": false,
          "internalType": "uint256",
          "name": "amount",
          "type": "uint256"
        }
      ],
      "name": "etherDeposited",
      "type": "event"
    },
    {
      "anonymous": false,
      "inputs": [
        {
          "indexed": true,
          "internalType": "address",
          "name": "account",
          "type": "address"
        },
        {
          "indexed": false,
          "internalType": "uint256",
          "name": "amount",
          "type": "uint256"
        }
      ],
      "name": "etherWithdrawed",
      "type": "event"
    },
    {
      "inputs": [
        {
          "internalType": "uint256",
          "name": "_amount",
          "type": "uint256"
        }
      ],
      "name": "deposit",
      "outputs": [],
      "stateMutability": "payable",
      "type": "function"
    },
    {
      "inputs": [
        {
          "internalType": "address",
          "name": "_address",
          "type": "address"
        }
      ],
      "name": "getBalanceAndLastPayment",
      "outputs": [
        {
          "components": [
            {
              "internalType": "uint256",
              "name": "balance",
              "type": "uint256"
            },
            {
              "internalType": "uint256",
              "name": "lastpayment",
              "type": "uint256"
            }
          ],
          "internalType": "struct Bank.Account",
          "name": "",
          "type": "tuple"
        }
      ],
      "stateMutability": "view",
      "type": "function"
    },
    {
      "inputs": [],
      "name": "getBalanceTotal",
      "outputs": [
        {
          "internalType": "uint256",
          "name": "",
          "type": "uint256"
        }
      ],
      "stateMutability": "view",
      "type": "function"
    },
    {
      "inputs": [
        {
          "internalType": "uint256",
          "name": "_amount",
          "type": "uint256"
        }
      ],
      "name": "withdraw",
      "outputs": [],
      "stateMutability": "nonpayable",
      "type": "function"
    },
    {
      "stateMutability": "payable",
      "type": "receive"
    }
  ],
  "transactionHash": "0x2d99b19285f69d183b43aae0e3c5a40e84705ea0a5ffa0f436411ab0ef456f70",
  "args": [],
  "numDeployments": 1,
  "solcInputHash": "1064677ae432afcb6eebc2a17fce09f1",
  "bytecode": "0x608060405234801561001057600080fd5b506104b0806100206000396000f3fe6080604052600436106100435760003560e01c80631699af39146100585780632e1a7d4d14610095578063aa523f4a146100be578063b6b55f25146100e957610053565b366100535761005134610105565b005b600080fd5b34801561006457600080fd5b5061007f600480360381019061007a9190610304565b61020e565b60405161008c9190610379565b60405180910390f35b3480156100a157600080fd5b506100bc60048036038101906100b791906103c0565b61027b565b005b3480156100ca57600080fd5b506100d361027e565b6040516100e091906103fc565b60405180910390f35b61010360048036038101906100fe91906103c0565b610105565b005b80600160003373ffffffffffffffffffffffffffffffffffffffff1673ffffffffffffffffffffffffffffffffffffffff16815260200190815260200160002060000160008282546101579190610446565b9250508190555042600160003373ffffffffffffffffffffffffffffffffffffffff1673ffffffffffffffffffffffffffffffffffffffff16815260200190815260200160002060010181905550806000808282546101b69190610446565b925050819055503373ffffffffffffffffffffffffffffffffffffffff167f4de483450f36dd8489373cf9166b2260f09ae72422d836e12fd9565cec1cb91e8260405161020391906103fc565b60405180910390a250565b610216610287565b600160008373ffffffffffffffffffffffffffffffffffffffff1673ffffffffffffffffffffffffffffffffffffffff168152602001908152602001600020604051806040016040529081600082015481526020016001820154815250509050919050565b50565b60008054905090565b604051806040016040528060008152602001600081525090565b600080fd5b600073ffffffffffffffffffffffffffffffffffffffff82169050919050565b60006102d1826102a6565b9050919050565b6102e1816102c6565b81146102ec57600080fd5b50565b6000813590506102fe816102d8565b92915050565b60006020828403121561031a576103196102a1565b5b6000610328848285016102ef565b91505092915050565b6000819050919050565b61034481610331565b82525050565b604082016000820151610360600085018261033b565b506020820151610373602085018261033b565b50505050565b600060408201905061038e600083018461034a565b92915050565b61039d81610331565b81146103a857600080fd5b50565b6000813590506103ba81610394565b92915050565b6000602082840312156103d6576103d56102a1565b5b60006103e4848285016103ab565b91505092915050565b6103f681610331565b82525050565b600060208201905061041160008301846103ed565b92915050565b7f4e487b7100000000000000000000000000000000000000000000000000000000600052601160045260246000fd5b600061045182610331565b915061045c83610331565b925082820190508082111561047457610473610417565b5b9291505056fea26469706673582212206a32aabe818e65c0c259209c09e196c3f3c59c9e6b7b476217bf38f62ba1498b64736f6c63430008110033",
  "devdoc": {
    "kind": "dev",
    "methods": {},
    "version": 1
  },
  "userdoc": {
    "kind": "user",
    "methods": {},
    "version": 1
  },
  "storageLayout": {
    "storage": [
      {
        "astId": 8,
        "contract": "contracts/Bank.sol:Bank",
        "label": "Balance",
        "offset": 0,
        "slot": "0",
        "type": "t_uint256"
      },
      {
        "astId": 13,
        "contract": "contracts/Bank.sol:Bank",
        "label": "accounts",
        "offset": 0,
        "slot": "1",
        "type": "t_mapping(t_address,t_struct(Account)6_storage)"
      }
    ],
    "types": {
      "t_address": {
        "encoding": "inplace",
        "label": "address",
        "numberOfBytes": "20"
      },
      "t_mapping(t_address,t_struct(Account)6_storage)": {
        "encoding": "mapping",
        "key": "t_address",
        "label": "mapping(address => struct Bank.Account)",
        "numberOfBytes": "32",
        "value": "t_struct(Account)6_storage"
      },
      "t_struct(Account)6_storage": {
        "encoding": "inplace",
        "label": "struct Bank.Account",
        "members": [
          {
            "astId": 3,
            "contract": "contracts/Bank.sol:Bank",
            "label": "balance",
            "offset": 0,
            "slot": "0",
            "type": "t_uint256"
          },
          {
            "astId": 5,
            "contract": "contracts/Bank.sol:Bank",
            "label": "lastpayment",
            "offset": 0,
            "slot": "1",
            "type": "t_uint256"
          }
        ],
        "numberOfBytes": "64"
      },
      "t_uint256": {
        "encoding": "inplace",
        "label": "uint256",
        "numberOfBytes": "32"
      }
    }
  }
}